:100200000C9452010C947A010C947A010C947A01AA
:100210000C947A010C947A010C947A010C947A0172
:100220000C947A010C947A010C947A010C947A0162
:100230000C947A010C9464170C94C1170C947218E6
:100240000C947A010C947A010C947A010C947A0142
:100250000C947A010C947A010C947A010C947A0132
:100260000C947A010C947A010C94F2160C94CC162E
:100270000C947A010C947A010C947A010C947A0112
:100280000C947A010C947A010C947A010C947A0102
:100290000C9468160C943E170C9418170C947A0161
:1002A0004F19321911241FBECFEFCDBFDFE3DEBFE0
:1002B00018E2A0E0B8E2EDE2FCE402C005900D9285
:1002C000A834B107D9F72CE2A8E4B8E201C01D9226
:1002D000AD3BB207E1F711E0C1E5D1E004C02197E1
:1002E000FE010E94D620C035D107C9F70E94061B27
:1002F0000C94D8240C94000108950895089508954D
:10030000862FE091A429F091A529309711F0BA0128
:1003100009940895862FE091A229F091A32930979E
:1003200011F0BA0109940895862FE091A029F09167
:10033000A129309711F0BA0109940895862FE09110
:100340009E29F0919F29309711F0BA0109940895E0
:10035000862FE0919C29F0919D29309711F0BA01E8
:1003600009940895862FE0919A29F0919B2930975E
:1003700011F0BA01099408950895862F642FE09131
:100380009829F0919929309711F0A90109940895BD
:10039000E0919629F0919729309709F009940895F2
:1003A0008F929F92AF92BF92CF92DF92EF92FF9285
:1003B00040913A2C30E08111342FE0913B2CC090D9
:1003C000402CD090412CE090422CF090432CE63011
:1003D00030F5F0E0B09685E0EE0FFF1F8A95E1F76B
:1003E00060E070E0CB012085242323130FC04B0174
:1003F0005C012FEF821A920AA20AB20A6C157D05DF
:100400008E059F0578F060E070E0CB01FF90EF90E3
:10041000DF90CF90BF90AF909F908F900895F0E0C5
:10042000E0E0DECFC501B401DECFCF93DF93FC0166
:10043000A081B181109701F1EC01ED91FC91119730
:100440000190F081E02D69EFCD01099588819981B6
:10045000DC01ED91FC910190F081E02D62E00995C5
:1004600088819981DC01ED91FC910190F081E02D72
:1004700065E0DF91CF910994DF91CF9108951F93AB
:10048000CF93DF93182FEB0180915C2B90915D2B24
:100490006817790760F480915A2B90915B2BC80FF5
:1004A000D91F188380E0DF91CF911F910895E091CB
:1004B000892BF0918A2B309711F481E0F4CF81E001
:1004C0008093592B8091752B9091762B0995809173
:1004D0005C2B90915D2BC817D90778F7DCCFCF93B1
:1004E000DF93EC01FB0130E020E0C901880F991F88
:1004F0008C179D0778F44081DB014D93BD01119766
:100500009181979599279795942B9C932F5F3F4FB7
:100510003296EBCFC901DF91CF910895CF93DF934E
:1005200090E0FC01ED56F44720812F3F71F0FC0173
:10053000E659F447A08130E2A39FD0011124BC5FAB
:100540006130710529F411962C93DF91CF910895B4
:1005500085529547EC01E881EF3F89F0CD01409647
:10056000E80FF92FF11D9FB7F89412962C93808114
:100570006230710539F4886080839FBFE6CFF0E078
:10058000E0E0F1CF877FF8CF282F30E0F901EE547B
:10059000F547E081EE2309F1E13021F0F0F0E6309B
:1005A00098F008954091010A25523547F9012081BC
:1005B0002C5F81E090E001C0880F2A95EAF78095D2
:1005C00084238093010A089580E1E89FF0011124BB
:1005D000E05AF54F81818F7E81830895FF920F93BA
:1005E0001F93CF93DF93082F10E0F801ED56F447E7
:1005F000F0809FEFF916A1F0EB01893210F40E9410
:10060000C402F801E659F447E08180E2E89FF00176
:100610001124FC5F80818F2159F0CD2B39F4F682B3
:10062000DF91CF911F910F91FF900895F582F8CF40
:10063000D801A552B5478C91309771F08F3F61F08A
:100640007096E80FF11D9FB7F8948081CD2B39F497
:10065000877F80839FBFE4CFF0E0E0E0F4CF886045
:10066000F8CF0F931F93CF93082F10E0F801ED56AA
:10067000F447C081CF3FB9F0893210F40E94C40220
:10068000F801E659F447E08180E2E89FF001112487
:10069000FC5F8085C82381E090E009F480E0CF9181
:1006A0001F910F91089580E090E0F9CF893210F406
:1006B0000C94EE020895893210F40C948E02089581
:1006C0008E508093060681E08093080680910B0689
:1006D00080FFFCCF2FB7F8948091100690911106FF
:1006E0002FBF0895CF93DF938FB7F8942091B4294B
:1006F0003091B5294091B6295091B729E091BA0AB5
:100700009091B60A90FF06C02F5F3F4F4F4F5F4F4B
:10071000E091BA0A8FBFA091B229B091B329C091DC
:10072000B029D091B1290E949A20EC9F9001ED9FB1
:10073000300D1124620F731F811D911DDF91CF9128
:1007400008958F929F92AF92BF92CF92DF92EF92D5
:10075000FF924B015C010E9472036B017C01A8EEC9
:10076000B3E0A50194010E949A20C60ED71EE81E90
:10077000F91EC616D706E806F90618F40E94720399
:10078000F8CF0E9472036C157D058E059F05C8F396
:10079000FF90EF90DF90CF90BF90AF909F908F90A1
:1007A00008952FB7F8946091AC297091AD2980918C
:1007B000AE299091AF292FBF0895CF92DF92EF928B
:1007C000FF920F931F93CF93DF93CDB7DEB7C05443
:1007D000D140CDBFDEBF0E94D10300913C2C1091CF
:1007E0003D2C20913E2C30913F2C6B017C01C01A96
:1007F000D10AE20AF30A97018601003D174021055C
:10080000310578F48091442CC05CDE4FCDBFDEBF53
:10081000DF91CF911F910F91FF90EF90DF90CF90DC
:10082000089560933C2C70933D2C80933E2C9093C4
:100830003F2C1092372C1092362C1092352C10929F
:10084000342C1092332C61E070E08091382C0E949F
:1008500056036AEF70E080E090E00E94A10361E03F
:1008600070E08091382C0E945B0370E060E0809122
:10087000382C0E94560364E170E080E090E00E9412
:10088000A103F89461E070E08091382C0E94560337
:100890008BE990E00197F1F762E070E08091382CED
:1008A0000E945B0383E290E00197F1F780E00E94F1
:1008B000D001672B682B692B29F41092442C789473
:1008C00080E0A2CF81E00E94D001672B682B692BCA
:1008D000A1F38E010F5F1F4F6E018FEBC81A8EEFD1
:1008E000D80A780180E00E94D001F701608371830B
:1008F0008283938381E00E94D001F7016483758332
:1009000086839783F8E0EF0EF11CEC14FD0451F799
:10091000789430E020E0F801C080D180E280F3805C
:100920004481558166817781C114D104E104F104C9
:1009300029F0411551056105710519F41092442CF7
:10094000BFCFF90183E0F595E7958A95E1F7ED5C76
:10095000F34D8081880FC416D506E606F70610F120
:1009600080832F5F3F4F085F1F4F2832310599F674
:100970004091372C2091332C8091342C280F332731
:10098000331F8091352C280F311D8091362C820F1A
:10099000932F911D99274817190681F681E08093BE
:1009A000442C32CF8160DCCF009721F0805C9F4FD8
:1009B0000C9415020895FC01A485B58511968C91BF
:1009C000119781FD1BC06C9182898F5F8F73938912
:1009D000981739F0A289AE0FBF2FB11D59966C93AD
:1009E000828BE756FF4F80819181009741F0DC01B7
:1009F000ED91FC910190F081E02D09948C91089586
:100A0000FC0154894589252F30E0842F90E0821B1A
:100A1000930B541710F0CF96089501970895FC0199
:100A200092898389981761F0A389AE0FBF2FB11DFA
:100A300059968C9193899F5F9F73938B90E0089553
:100A40008FEF9FEF0895FC0192898389981731F009
:100A50008389E80FF11D818D90E008958FEF9FEF5E
:100A60000895FC0192892389892F90E0805C9F4F33
:100A7000821B91098F7399270895CF93DF93EC011F
:100A8000E881F9810680F781E02D0995EC85FD85E7
:100A900086818F738683EC85FD8585818F7585833F
:100AA0008B898A8B198ADF91CF910895CF92DF923B
:100AB000EF92FF920F931F93CF93DF93EC016A01A4
:100AC0007B01022F8989882339F0E881F981028826
:100AD000F389E02DCE01099598898091E205892B53
:100AE0008093E2051FB7F89460E070E281EA97E036
:100AF000A70196010E943B2069017A018FEFC81A75
:100B0000D80AE80AF80AF694E794D794C794EC85D3
:100B1000FD8586818D7F8683EC85FD858681868334
:100B2000198AA09123110A2E000CBB0BA701960174
:100B30000E94A52020E034E040E050E00E945D20CB
:100B4000EC85FD85C20ED31EE41EF51EC086D1863F
:100B5000EC85FD850783EC85FD858681806C868329
:100B6000EC85FD858581806885838E8562E070E0F7
:100B70000E945B038F8561E070E00E9456038F85C1
:100B800061E070E00E945B031FBFDF91CF911F9176
:100B90000F91FF90EF90DF90CF900895CF93DF9368
:100BA000FC0194898589C485D585981306C08D81FB
:100BB0008F7D8D83DF91CF910895A589AE0FBF2FD3
:100BC000B11DA75ABF4F2C91858990E001968F7374
:100BD0009927858B80E48C83A485B58512962C9308
:100BE000948985899813E6CFA485B58515968C914F
:100BF00015978F7D15968C9387898823D9F2808DE0
:100C000080931301178AD6CFDC011C96ED91FC91DD
:100C10000FB607FE03C0258125FD04C0248125FDF4
:100C20000C94CE050895EF92FF920F931F93CF93EC
:100C3000DF93EC0181E0898B9C898D8998131CC01E
:100C4000AC85BD8514968C91149785FF15C01296BE
:100C50006C93AC85BD8580E414968C93EC85FD8502
:100C600085818F7D858381E090E0DF91CF911F9119
:100C70000F91FF90EF9008958091110180FF08C0BF
:100C800080911301888F8E898093130181E08F8B6F
:100C9000F62E0C8910E00F5F1F4F0F731127E02E07
:100CA0008D898E1104C0CE010E940406F9CFEC8913
:100CB000EC0FFD2FF11DE75AFF4FF0820C8BEC85F6
:100CC000FD8585818062CECFCF93DF93FC012189A2
:100CD0002223C9F0EC018091110180FF08C08091AE
:100CE0001301808F86898093130181E0878BEC85C7
:100CF000FD85858185FD03C0848186FD04C0CE010C
:100D00000E940406F4CFDF91CF91089581E0089509
:100D1000DC01ED91FC910190F081E02D0994AF92FE
:100D2000BF92CF92DF92EF92FF920F931F93CF93D8
:100D3000DF936C017B018B01040F151FEB015E013A
:100D4000AE18BF08C017D10759F06991D601ED91CF
:100D5000FC910190F081E02DC6010995892B79F76E
:100D6000C501DF91CF911F910F91FF90EF90DF9020
:100D7000CF90BF90AF9008955F926F927F928F92C5
:100D80009F92AF92BF92CF92DF92EF92FF920F931A
:100D90001F93CF93DF935C016901DA015C90232BF1
:100DA00019F4CC24CA94DC2C8A013A01660E771E11
:100DB000D0E0C0E0F12CE12C87E0882E912CF501E9
:100DC00080819181D8016C910C2E01C0660F0A942C
:100DD000EAF765296F77DC01ED91FC910190F081D4
:100DE000E02D0995BFEFEB1AFB0AF801608170E076
:100DF000C4018C1B9D0B02C0759567958A95E2F71F
:100E0000562E2196C730D10558F1CE14DF0441F19A
:100E1000D5018D919C91652D6F77DC01ED91FC9151
:100E20000190F081E02D0995BFEFEB1AFB0A551CEC
:100E30005524551C2797E6CFEC14FD0408F4BFCFCA
:100E4000DF91CF911F910F91FF90EF90DF90CF90A6
:100E5000BF90AF909F908F907F906F905F9008951C
:100E60000F5F1F4F6016710639F7209749F3EC1496
:100E7000FD0430F7F5018081918161E070E001C0EF
:100E8000660FCA95EAF761506521DC01ED91FC918E
:100E90000190F081E02DDF91CF911F910F91FF9094
:100EA000EF90DF90CF90BF90AF909F908F907F900A
:100EB0006F905F9009941F93CF93DF9300D0CDB7CD
:100EC000DEB7182F69837A838091572B9091582B26
:100ED0000097B9F0DC01ED91FC910190F081E02DDB
:100EE00061157044A0F4612F606E099522E030E036
:100EF000AE014F5F5F4F62E070E087E59BE20E94CA
:100F0000BC060F900F90DF91CF911F91089560EF75
:100F100009958091572B9091582BDC01ED91FC9114
:100F20000190F081E02D6FE609958091572B90910B
:100F3000582BDC01ED91FC910190F081E02D612FA7
:100F4000099522E030E0AE014F5F5F4F62E070E054
:100F500087E59BE20E94BC068091572B9091582B0D
:100F6000DC01ED91FC910190F081E02D67EF099596
:100F7000C8CFCF93DF9300D0CDB7DEB769837A8334
:100F8000A091572BB091582B1097A9F0682F60694A
:100F9000ED91FC9111970190F081E02DCD01099523
:100FA00022E030E0AE014F5F5F4F62E070E087E526
:100FB0009BE20E94BC060F900F90DF91CF910895A5
:100FC000CF92DF92EF92FF920F931F93CF93DF9315
:100FD000FC01E058FF4FE080EE2009F45CC0EC011A
:100FE000C05CDF4FA881B981109709F454C0FC019F
:100FF000EF57FF4FC080D180F60111810081ED9144
:10100000FC9111970190F081E02D60EFCD010995E1
:1010100088819981DC01ED91FC910190F081E02DB6
:1010200069E7099588819981DC01ED91FC91019036
:10103000F081E02D602F099588819981DC01ED9187
:10104000FC910190F081E02D612F0995F12C01E0D8
:1010500010E00F5F1F4FE016F10659F030E020E07E
:10106000A601400F511F61E070E0CE010E94BC0656
:10107000F0CF88819981DC01ED91FC910190F081A4
:10108000E02D67EFDF91CF911F910F91FF90EF90CF
:10109000DF90CF900994DF91CF911F910F91FF9036
:1010A000EF90DF90CF900895009711F00C94E00737
:1010B00008950895EF92FF920F931F93CF93DF93BC
:1010C0007C01EB018B01040F151FC017D10759F0EC
:1010D000D701ED91FC910480F581E02D6881C70175
:1010E00009958993F2CFDF91CF911F910F91FF90D6
:1010F000EF9008950F931F93CF93DF93EC018B0133
:101100008091C008E881F9810480F581E02D86FD99
:1011100013C0612FCE010995182FE881F981048051
:10112000F581E02D602FCE010995082FC801DF91D0
:10113000CF911F910F910895CE010995082FE88155
:10114000F9810480F581E02D612FCE010995182FDA
:10115000EDCF00006093C4088091C30887FFFCCFE7
:101160008091C40808958F929F92AF92BF92CF92C0
:10117000DF92EF92FF920F931F93CF93DF93FC01C7
:101180008085882319F081FF0EC07894DF91CF917C
:101190001F910F91FF90EF90DF90CF90BF90AF9095
:1011A0009F908F90089580FFF1CF82849384A484D0
:1011B000B584C12CD12C760110E09401A501B601B3
:1011C000C701A0E00E94CA2099F1217030E040E000
:1011D00050E060E070E080E090E00E94CA20D9F02A
:1011E000D0E0C0E0103370F4C12FC695C695C69507
:1011F00080E2C89FE0011124C05FDB4F812F877020
:10120000C80FD11DCF01810F911DDC0152968C9129
:101210009881892B88839401A501B601C70101E05B
:101220000E94AF2049015A016B017C011F5FC5CFAD
:1012300086849784A088B188C12CD12C760110E2D5
:101240009401A501B601C701A0E00E94CA2009F4DB
:101250009DCF217030E040E050E060E070E080E041
:1012600090E00E94CA20D9F0D0E0C0E0103370F4C2
:10127000C12FC695C695C695B0E2CB9FE00111245B
:10128000C05FDB4F812F8770C80FD11DCF01810F49
:10129000911DDC0152968C919881892B8883940151
:1012A000A501B601C70101E00E94AF2049015A0122
:1012B0006B017C011F5FC4CFFC016F3F710581F1A1
:1012C000808581FD2DC0603271055CF581E090E084
:1012D00002C0880F991F6A95E2F780959095092EB4
:1012E000000CAA0BBB0B428553856485758584234E
:1012F0009523A623B72382879387A487B587828502
:101300009385A485B585892B8A2B8B2B49F48685FB
:101310009785A089B189892B8A2B8B2B09F410869C
:1013200008956052710981E090E002C0880F991F12
:101330006A95E2F780959095092E000CAA0BBB0BDD
:10134000468557856089718984239523A623B72311
:1013500086879787A08BB18BD2CFFC016F3F710539
:10136000E9F1603371051CF082E080870895808583
:101370008160808760327105C4F481E090E002C032
:10138000880F991F6A95E2F7092E000CAA0BBB0B78
:101390004285538564857585842B952BA62BB72BA9
:1013A00082879387A487B58708956052710981E089
:1013B00090E002C0880F991F6A95E2F7092E000C91
:1013C000AA0BBB0B4685578560897189842B952BA9
:1013D000A62BB72B86879787A08BB18B0895E0EC5F
:1013E000F8E020812E7F2083FC0117820895E0EC35
:1013F000F8E082818E7F82830895E0ECF8E08281BC
:101400008160828308950895CF93DF931F92CDB7B3
:10141000DEB78983698187ED9BE20F90DF91CF91E1
:101420000C94A9080F931F93CF938C01C62F81E0D2
:101430000E94040AF80180810E94040AC13031F43C
:101440008EEECF911F910F910C94040ACF911F91B2
:101450000F910895CF93DF93EC018FEF0E94040A60
:101460008883DF91CF910895CF93DF931F92CDB7FB
:10147000DEB71982CE0101960E942A0A89810F9057
:10148000DF91CF910895AF92BF92CF92DF92EF920A
:10149000FF920F931F93CF93DF931F92CDB7DEB7C9
:1014A000182F6B017A01198289EEA82E83E0B82EDD
:1014B0000E94340A8F3E31F091E0A91AB10831F14F
:1014C000803EB1F7CE0101960E942A0A10688981F8
:1014D00018131EC0CE0101960E942A0A898181300C
:1014E000B9F48FEF0E94040AF701808310E000E056
:1014F000F701808180171106C9F0C4F0C601800F82
:10150000911F0E942A0A0F5F1F4FF2CF803ED1F237
:1015100090E080E00F90DF91CF911F910F91FF90AD
:10152000EF90DF90CF90BF90AF900895CE010196DD
:101530000E942A0A81E090E0EDCF61E070E08091A6
:1015400003280E94560387ED9BE20C94B308609336
:101550008C2970938D29089560938A2970938B2923
:101560000895E0918C29F0918D29309741F01092E7
:10157000892910928829099580918829089580E009
:101580000895E0918A29F0918B29309759F0309194
:10159000872920918629321728F010928729809375
:1015A0008629099408950895E091872980918629D4
:1015B000E81730F4F0E0EA5FF64D808190E008959E
:1015C0008FEF9FEF089590918729809186292FEFC3
:1015D0003FEF981748F4E92FF0E0EA5FF64D2081DD
:1015E00030E09F5F90938729C901089580918629F3
:1015F00090918729891B990B0895CF92DF92EF92E2
:10160000FF920F931F93CF93DF937C018A01EB012D
:101610006B01C40ED51ECC15DD0551F06991D701C3
:10162000ED91FC910190F081E02DC7010995F3CF78
:10163000C801DF91CF911F910F91FF90EF90DF9044
:10164000CF9008952091882927FF08C021E030E03D
:10165000FC012283338390E080E008958091892902
:10166000E82FF0E0EA57F74D60838F5F8093892978
:101670008093882981E090E00895DC01ED91FC9150
:10168000008CF18DE02D61E0099460938528109223
:1016900089291092882908950F931F93CF938C0165
:1016A000C62FFC01648187E29CE20E94450BF80191
:1016B00063856C2B87E29CE20E94220B87E29CE20E
:1016C000CF911F910F910C943D0BDC01ED91FC919A
:1016D000048CF58DE02D21E00994E0EAF8E0138216
:1016E000168281E0858314861186109283281092D9
:1016F00084280895109287291092862910928929AA
:10170000109288298091832890918428892BD9F47C
:1017100082E090E08093832890938428109276282A
:1017200010927528109274281092732810927228C3
:1017300010927128660F6093AC0881EE8093A9081F
:1017400081E08093A30881EB9AE0809379289093BD
:101750007A2886E898E2809377289093782881EC1D
:101760009AE080937E2890937F2886E099E2809388
:101770007C2890937D2880E880937B28089590E0D2
:1017800080E008950F9391E09093822810926E2844
:1017900060936C2870936D2840936B2820936A287F
:1017A00010926F281092702800936928880F8093F8
:1017B000682823E030E044E050E080916B288823E3
:1017C00041F02093832830938428809168288E7F6D
:1017D0000BC080916A28882351F04093832850934E
:1017E00084288091682881608093A70808C0809130
:1017F0006B28811104C080916A28882311F380919D
:101800006E288823E1F380916E288330B1F28091B5
:101810006A28882321F0809170280F910895809183
:101820006E28823031F0853031F0813031F480E043
:10183000F4CF81E0F2CF83E0F0CF84E0EECF0F93DE
:1018400080918328909184280197A1F48091822827
:10185000811112C0062F20E04091882966E878E2C5
:10186000809185280E94C20B1092892910928829A4
:101870000F91089580E0F8CF81E0F6CF0F9386E0D6
:1018800099E2809380289093812880918328909179
:1018900084280197C9F480918228811117C0FA0128
:1018A0004138510510F0E0E8F0E0022F862F2E2F8E
:1018B00040E070E060E00E94C20B109287298093A4
:1018C000862990E00F91089580E0F7CF81E0F5CF71
:1018D000E0EAF8E091859066918722E030E020937D
:1018E0008328309384288093732810927428089555
:1018F00081E0809374281092732893E09093AA0853
:101900009091AB0891FF10C010927528E091792852
:10191000F0917A2809958093672885E090E080937C
:1019200083289093842808951092762880937128B4
:1019300086E090E0F4CF8F929F92AF92BF92CF92C9
:10194000DF92EF92FF92CF93DF9360342DE0720726
:1019500023E08207910508F454C0611525E372075E
:101960002CE08207910508F445C060387F4482412D
:10197000910508F046C0C8E7D0E020E432E44FE02B
:1019800050E080903D2890903E28A0903F28B09055
:101990004028C501B4010E943B2069017A018AE018
:1019A000C81AD108E108F108C501B40120E432E405
:1019B0004FE050E00E943B20DE010E949A2028EE7A
:1019C00033E040E050E00E943B20C21AD30AE40A10
:1019D000F50AF694E794D794C794C092A608DF91CD
:1019E000CF91FF90EF90DF90CF90BF90AF909F90FE
:1019F0008F900895CCE2D1E020E83AE146E050E053
:101A0000C0CFC8EED3E020EA36E841E050E0B9CFDD
:101A1000CB01BA010C949B0C109287291092862955
:101A20001092892910928829809183289091842886
:101A3000892BF1F48091E3058093E30581E090E048
:101A400080938328909384281092702810926F2896
:101A50001092822810926E2881EC8093A30860EA8D
:101A600076E881E090E00E949B0C81E08093A508DD
:101A700008958450823040F4672B19F010927C2C2A
:101A8000089581E080937C2C0895882351F0813063
:101A900081F4672B19F01092662C08958093662CC0
:101AA0000895672B19F01092712C089581E08093AE
:101AB000712C0895823149F018F4813161F0089554
:101AC000813271F0823299F0089581E08093662C22
:101AD0008093662808951092662C109266280895C7
:101AE0008091662861E070E0811107C008958091BF
:101AF00066288823D9F370E060E083E00C94EE025E
:101B000088EDA89584BF80910001866080930001D4
:101B10008091010181FDFCCF0895DC01ED91FC91E4
:101B20000088F189E02D23E030E00994CF92DF9224
:101B3000EF92FF920F931F93CF93DF93EC010E94DC
:101B4000D1030A811B812C813D816B017C01C01A6C
:101B5000D10AE20AF30A0E811F8128853985C01651
:101B6000D106E206F306B0F02A85211113C06A837C
:101B70007B838C839D83E881F9810680F781E02D4A
:101B8000CE01DF91CF911F910F91FF90EF90DF90E9
:101B9000CF900994DF91CF911F910F91FF90EF901B
:101BA000DF90CF900895CF93DF93EC014E835F8356
:101BB000688779870E94D1036A837B838C839D83A6
:101BC000DF91CF9108950C94D30D0C9478210C944F
:101BD00078210C9478210C9478210C9478210E941F
:101BE000D10380913C28893220F40E943103892B53
:101BF000C1F708950F931F93CF938C01C62F0E94B6
:101C00004C0B6C2F6460C8010E944C0B6C2F6B7FD7
:101C1000C8010E944C0B83EC90E00197F1F7CF9143
:101C20001F910F9108950F931F93CF93DF938C0112
:101C3000D62FC42F607F642B0E94FA0D80E1D89FBD
:101C4000B00111246C2BC801DF91CF911F910F912E
:101C50000C94FA0D40E061E085E49CE20E94130ED2
:101C60008BE39FE10197F1F70895CF93DF93CDB711
:101C7000DEB72897CDBFDEBF98E0EAECF9E8DE01D9
:101C8000119601900D929A95E1F790914D2C96172F
:101C900008F46FEF262F30E0220F331F41E050E0B1
:101CA0004C0F5D1F240F351FF9016081680F6068BC
:101CB00040E085E49CE22896CDBFDEBFDF91CF9166
:101CC0000C94130E41E00E94130E81E090E0089501
:101CD0000F931F93CF93DF938B0198E0899FB001FF
:101CE0001124606440E085E49CE20E94130EE80148
:101CF000085F1F4F699185E49CE20E94620EC01745
:101D0000D107C1F7DF91CF911F910F9108950E94E4
:101D10000122FB0101900020E9F73197AF01461B3A
:101D2000570BDC01ED91FC910280F381E02D0994C9
:101D30008F929F92AF92BF92EF92FF920F931F9359
:101D4000CF93DF93CDB7DEB7A197CDBFDEBF7C01C8
:101D5000FA01CB0119A2223008F42AE08E010F5DAE
:101D60001F4F822E912CB12CA12CBF01A5019401F3
:101D70000E943B20F901CA016A30F4F4605DD80189
:101D80006E938D01232B242B252B79F790E080E097
:101D9000109721F0BD01C7010E94890EA196CDBF09
:101DA000DEBFDF91CF911F910F91FF90EF90BF9019
:101DB000AF909F908F900895695CE1CFCF92DF92B2
:101DC000EF92FF92CF93DF936C01990FEE08FF081B
:101DD000F7FE23C06DE284E59AE20E948806EC01DA
:101DE00044275527BA014C195D096E097F092AE07D
:101DF00084E59AE20E94980EC80FD91F68EF7BE82D
:101E000084E59AE20E94890E8C0F9D1FDF91CF918D
:101E1000FF90EF90DF90CF9008952AE0B701A601E0
:101E200084E59AE20E94980EEC01E8CFCF92DF920F
:101E3000EF92FF92CF93DF938FE00E946003EC015B
:101E40009C01ACE9BFEF0E947C202FEF33E040E023
:101E500050E00E945D2069017A0184E6C80ED11C21
:101E6000E11CF11CCE010E94DE0EB60181E00E9451
:101E70005B0770E060E08FE5C816D10414F461E000
:101E800070E083E0DF91CF91FF90EF90DF90CF90F3
:101E90000C94EE022F923F924F925F926F927F923C
:101EA0008F929F92AF92BF92CF92DF92EF92FF926A
:101EB0000F931F93CF93DF9300D01F92CDB7DEB760
:101EC0008A839B834B01FC0182899389019709F0E6
:101ED000CEC08F0144244A9431E090E08FEF20E09F
:101EE00042814111B0C043814111ADC09F5F8F3F1E
:101EF00011F4822F91E0391714F4392F482E3296BD
:101F00002F5F283069F71A821B82D12CC12CA42C98
:101F1000042C000CBB083501630E711C37FD7A944C
:101F2000CA14DB0424F0C614D7040CF490C0F801E2
:101F30008281682F70E094E0759567959A95E1F736
:101F4000362E8F70582E8381E82EF12C24E0F594E4
:101F5000E7942A95E1F72E2C8F708983662309F484
:101F6000B7C0F9E0F61708F470C0605DC4010E94C4
:101F700088062A813B81280F391F2A833B8339E059
:101F800060E3351508F467E5650DC4010E94880615
:101F9000EA81FB81E80FF91FEA83FB83311004C05B
:101FA000511002C0222079F0F9E060E3F21508F444
:101FB00067E56E0DC4010E9488062A813B81280FC7
:101FC000391F2A833B833981632F605D3A3010F0DB
:101FD0006981695AC4010E948806EA81FB81E80F81
:101FE000F91FEA83FB83F7E0CF16D10451F06AE3CF
:101FF000C4010E9488062A813B81280F391F2A8349
:102000003B833FEFC31AD30A0E5F1F4F88E0C81609
:10201000D10409F085CF8A819B812396CDBFDEBF95
:10202000DF91CF911F910F91FF90EF90DF90CF90B4
:10203000BF90AF909F908F907F906F905F904F90E8
:102040003F902F9008958FEF5ACF695A8FCFAC14DD
:10205000BD04B9F64110CBCF6AE3C4010E948806E3
:10206000EA81FB81E80FF91FEA83FB83C0CFEA8096
:10207000FB80EEE0EE0EF11CAA80BB80F1E1AF0E1A
:10208000B11C10E000E0F70141917F0150E070E0E9
:1020900060E02AE0C4010E94980E6C016EE2C40167
:1020A0000E9488068C0D9D1D080F191FAE14BF04D9
:1020B00051F7EA81FB81418950E070E060E02AE05D
:1020C000C4010E94980E800F911F8A839B83A3CF27
:1020D000511055CF67CFBC0185E49CE20C94890E6A
:1020E0002F923F924F925F926F927F928F929F9228
:1020F000AF92BF92CF92DF92EF92FF920F931F9316
:10210000CF93DF9300D000D0CDB7DEB70E94D30DC0
:1021100087E29CE20E940C0D10924A2C80914F2C79
:10212000823018F098E090934A2C80934D2C62E313
:1021300070E080E090E00E94A1036091502C85E463
:102140009CE20E944C0B68EE73E080E090E00E94FD
:10215000A10360E385E49CE20E94FA0D8BE496E41F
:102160000197F1F760E385E49CE20E94FA0D8BE4AD
:1021700096E40197F1F760E385E49CE20E94FA0D92
:1021800083E592E00197F1F760E285E49CE20E942A
:10219000FA0D60914A2C606240E085E49CE20E9466
:1021A000130E84E080934B2C40E06CE085E49CE2CD
:1021B0000E94130E0E942A0E82E080934C2C40E075
:1021C00066E085E49CE20E94130E40E062E085E454
:1021D0009CE20E94130E8BE39FE10197F1F70E94AE
:1021E0002A0E1092502C60E085E49CE20E944C0B79
:1021F00064EF71E080E090E00E94A10388E08093AA
:10220000502C60E085E49CE20E944C0B64EF71E08E
:1022100080E090E00E94A10360E082E00E94350E21
:102220008BEF9BE80E946B1068EE73E080E090E01B
:102230000E94A10360E088E00E94350E81E09CE8E6
:102240000E946B1068EE73E080E090E00E94A103B2
:1022500061E080E00E94350E88E09CE80E946B10EF
:1022600068EE73E080E090E00E94A1030E942A0ED5
:1022700072E4872E7AE8972EE2EDF9E8E983FA8393
:10228000F2EB8F16FAE89F0609F4E5C0F4016191BC
:1022900071914F0188EE93E00E9427205B012B0192
:1022A000770F66087708E981FA81E190F190E98378
:1022B000FA83EB82FC828091002890910128089794
:1022C00059F061E070E088E00E948E0288E090E0C2
:1022D00080930028909301288091002890910128F4
:1022E00030E020E0893291054CF4FC01E659F447D6
:1022F0002081E0E22E9F900111243C5F1901F7E05C
:102300002F0E311C1FEF8932910524F48D5694470E
:10231000FC011081EF2829F410E081E090E08B832C
:102320009C83EB81FC819F0150E040E060913D285F
:1023300070913E2880913F28909140280E943B2038
:1023400069017A01F694E794D794C794F1E0CF1A23
:10235000D108E108F10800E0C114D10481E0E806E9
:10236000F10478F069017A0197E0F694E794D79444
:10237000C7949A95D1F791E0C91AD108E108F108FC
:1023800001E02FEF3FEFA9014114510461047104F2
:1023900069F02B813C81220F331FD5010E949320CD
:1023A00028EE33E040E050E00E943B208FB7F894E5
:1023B000002309F44DC0E4E0E093900A1092910AE2
:1023C000C0929C0AD0929D0AF1E0F093950A209267
:1023D00090293092912910938F292093922930933C
:1023E000932940939429509395299091900A916054
:1023F0009093900A8FBFC301B2010E941A1F26E674
:1024000036E646EE5FE30E94A61F0E94E21E072EFC
:10241000000C880B990B0E94A103809100289091D9
:102420000128089709F02CCF109292291092932935
:10243000109294291092952970E060E088E00E9443
:1024400056038FEF90E0809300289093012818CFD7
:102450001092900AB3CF2496CDBFDEBFDF91CF910B
:102460001F910F91FF90EF90DF90CF90BF90AF90B2
:102470009F908F907F906F905F904F903F902F90A4
:102480000895CF92DF92EF92FF920F93FC01C12C3F
:10249000B9E0DB2EBDE3EB2EF12CC082D182E282CB
:1024A000F3821482158281E090E086839783C09046
:1024B0003D28D0903E28E0903F28F0904028F694A8
:1024C000E794D794C79490E04C155D056E057F05A1
:1024D00040F4F694E794D794C7949F5F9630A1F7A1
:1024E00097E004600187892F8095A82FA170B0E044
:1024F00084E0AA0FBB1F8A95E1F791629A2B80E0D6
:10250000232B09F480E4982B90870F91FF90EF9094
:10251000DF90CF9008950F931F93CF93DF93CDB7A4
:10252000DEB72A97CDBFDEBF8C01FC018781811108
:102530000CC01086118612861386148615861686A0
:102540001786108A118A81E087838091E305F8015C
:102550009681892B8093E30561E070E083810E947E
:102560005B0361E070E0F80184810E945B0380916D
:10257000C10884608093C1088091C0088162809303
:10258000C0084091192C50911A2C60911B2C70910D
:102590001C2C00911D2C20911F2C3091202CCE0141
:1025A00001960E94411299858A859093C008809374
:1025B000C1082A96CDBFDEBFDF91CF911F910F9149
:1025C0000895CF9383E28093032884E280933C288C
:1025D000C1E0C0938E298DE18093022861E070E014
:1025E00083E20E948E0270E060E084E20E945B035E
:1025F00061E070E08DE10E945B0361E070E08CE1DE
:102600000E948E0261E070E08CE10E94EE0261E0C7
:1026100070E083E20E94560361E070E08DE10E9469
:1026200056036AE070E080E090E00E94A10370E051
:1026300060E08DE10E9456036EEE72E080E090E073
:102640000E94A10370E060E08CE10E94EE0270E065
:1026500060E08CE10E948E0287ED9BE20E948B126B
:10266000C093B829CF9108955F926F927F928F9215
:102670009F92AF92BF92CF92DF92EF92FF920F9311
:102680001F93CF93DF93CDB7DEB76297CDBFDEBF89
:102690003C010B871C872D873E87042F4F87588B63
:1026A000698B7A8B29893A894B855C856D857E8516
:1026B000CE0101960E94411259841A85D3011896C1
:1026C0008C91882319F081FF18C0F8945092C008AB
:1026D0001093C1086296CDBFDEBFDF91CF911F91ED
:1026E0000F91FF90EF90DF90CF90BF90AF909F90B1
:1026F0008F907F906F905F90089580FFE7CFF301F8
:1027000082849384A484B584C12CD12C7601B0E05A
:102710009401A501B601C701A0E00E94CA20A9F159
:10272000217030E040E050E060E070E080E090E058
:102730000E94CA20E9F090E080E0B03370F48B2F63
:10274000869586958695F0E28F9FC0011124805F63
:102750009B4F2B2F2770820F911DFC01408193010D
:102760002B0F311DF901428BFC012081287F208332
:102770009401A501B601C70101E00E94AF20490103
:102780005A016B017C01BF5FC3CFD3011E968D90B0
:102790009D90AD90BC905197C12CD12C7601B0E2A8
:1027A0009401A501B601C701A0E00E94CA2009F466
:1027B0008DCF217030E040E050E060E070E080E0DC
:1027C00090E00E94CA20E9F090E080E0B03370F41D
:1027D0008B2F869586958695E0E28E9FC001112409
:1027E000805F9B4F2B2F2770820F911DFC01408132
:1027F00093012B0F311DF901428BFC012081287FB1
:1028000020839401A501B601C70101E00E94AF2019
:1028100049015A016B017C01BF5FC2CFCF92DF92A9
:10282000EF92FF920F931F93CF93DF93CDB7DEB755
:102830002897CDBFDEBF80E0082F1D821E8281E079
:10284000682F12E12AE730E040E05E8170E087ED1A
:102850009BE20E94341370E060E0809103280E94A4
:1028600056030E94D1036B017C0180913C28893280
:10287000B8F00E94D1036C197D098E099F0965305B
:1028800071058105910588F32896CDBFDEBFDF91E4
:10289000CF911F910F91FF90EF90DF90CF9008950F
:1028A0000E943103019781F3E4CFCF93DF9300D0EF
:1028B00000D0CDB7DEB78C8381E08B838091B829BF
:1028C000811102C00E94E1120E94EF0D0E940E14BD
:1028D00080EE0E94040A80E50E94040A82E00E94C1
:1028E000040A60E0CE0104960E94120A61E0CE0163
:1028F00003960E94120A0E94340A0E949D0A0E94B6
:10290000EF0D0E940E141A821982AE014F5F5F4FC5
:10291000BE016E5F7F4F80E50E94430A892B11F450
:102920008FEF8A830E949D0A2496CDBFDEBFDF9180
:10293000CF910895CF93DF9300D000D0CDB7DEB70D
:102940008B836C838091B829811102C00E94E112AF
:102950000E94EF0D0E940E1480EE0E94040A82E590
:102960000E94040A82E00E94040A60E0CE010396FD
:102970000E94120A61E0CE0104960E94120A0E948F
:10298000340A0E949D0A0E94EF0D0E940E141982C3
:102990001A82AE014E5F5F4FBE016F5F7F4F82E5CF
:1029A0000E94430A892B11F48FEF89830E949D0AAC
:1029B0002496CDBFDEBFDF91CF9108958C3031F0EA
:1029C0008D3039F08B3039F489E101C08AE10C9403
:1029D0009A148BE1FCCF0895CF92DF92EF92FF9291
:1029E0001F93CF93DF930E94DD03882341F08091F2
:1029F000392C8B3049F018F08551823008F160E0B5
:102A000070E080EC9FE707C06091332C70E090E0AD
:102A100080E00E94181F0E94E91E162F0E94DD030D
:102A2000882349F08091392C8B3059F120F0855161
:102A3000823008F487C060E070E080EC9FE728C037
:102A40006091332C70E090E080E00E94181F20E03D
:102A500030E040E853E40E94A61F6B017C016091C6
:102A6000342C70E090E080E00E941A1FA7019601CC
:102A70000E94761E2DEC3CEC4CEC5DE30E94A61F00
:102A8000CACF6091352C70E090E080E00E94181F62
:102A90000E94E91EC62F612F70E085E00E94B907F1
:102AA0006C2F70E084E00E94B90761E081E00E9431
:102AB000350E60E085E49CE20E94620E1F92CF9387
:102AC000C8E1DCE8DF93CF938CE598E29F938F9386
:102AD0000E94062261E083E00E94350E8CE598E2B8
:102AE0000E946B1061E085E49CE20E94620E61E04E
:102AF00087E00E94350E62E085E49CE20E94620E4F
:102B00001F921F93DF93CF9382E598E29F938F9359
:102B10000E94062261E089E00E94350E82E598E27B
:102B20000E946B108DB79EB70C968DBF9EBF8DE136
:102B30009CE8DF91CF911F91FF90EF90DF90CF90B5
:102B40000C946B10C091352C6C2F6F7770E090E077
:102B500080E00E941A1F20E030E040E853E40E9429
:102B6000A61F6B017C016091362C70E090E080E044
:102B70000E941A1FA70196010E94761E2DEC3CECC4
:102B80004CEC5DE30E94A61FC7FF82CF905880CF18
:102B9000CF92DF92EF92FF920F931F93CF93DF9329
:102BA0008EE00E946003EC019C01990F440B550BD1
:102BB0002A5A310941095109ACE9BFEF0E94A82006
:102BC00025E533E040E050E00E945D2069017A0194
:102BD00084E6C80ED11CE11CF11C8601B60180E020
:102BE0000E945B07CE010E94DE0E60E081E00E9441
:102BF000350E8FE19CE80E946B10DF92CF9286E247
:102C00009CE89F938F9388E498E29F938F930E9410
:102C1000062288E498E20E946B1060E08AE00E943D
:102C2000350E8DE19CE80E946B100F900F900F9075
:102C30000F900F900F900E311105D0F460E08DE0F1
:102C40000E94350E63E085E49CE20E94620E60E023
:102C50008EE00E94350E64E085E49CE2DF91CF9126
:102C60001F910F91FF90EF90DF90CF900C94620E28
:102C70008EE1C81AD10888E2C816D10470F460E069
:102C80008DE00E94350E8BE29CE80E946B1060E0A4
:102C90008EE00E94350E65E0DFCF063411057CF032
:102CA00060E08DE00E94350E63E085E49CE20E94C6
:102CB000620E60E08EE00E94350E66E0CDCFDF91BF
:102CC000CF911F910F91FF90EF90DF90CF900895DB
:102CD0001F920F920FB60F9211242F933F934F9391
:102CE0005F936F937F938F939F93AF93BF93409125
:102CF000AC295091AD296091AE297091AF29809196
:102D0000AA299091AB292091A8293091A929420F95
:102D1000531F611D711D2091A6293091A729820F93
:102D2000931F883E23E0920730F0885E93404F5F08
:102D30005F4F6F4F7F4F8093AA299093AB294093A9
:102D4000AC295093AD296093AE297093AF2980913F
:102D5000B4299091B529A091B629B091B7290196CF
:102D6000A11DB11D8093B4299093B529A093B629D4
:102D7000B093B72981E08093B60ABF91AF919F913C
:102D80008F917F916F915F914F913F912F910F9014
:102D90000FBE0F901F9018951F920F920FB60F92B3
:102DA00011242F933F934F935F936F937F938F9350
:102DB0009F93AF93BF93EF93FF9389EB99E20E94A8
:102DC000CE05FF91EF91BF91AF919F918F917F9130
:102DD0006F915F914F913F912F910F900FBE0F9088
:102DE0001F9018951F920F920FB60F9211242F93D8
:102DF0003F934F935F936F937F938F939F93AF9383
:102E0000BF93EF93FF9389EB99E20E94DB04FF915C
:102E1000EF91BF91AF919F918F917F916F915F9152
:102E20004F913F912F910F900FBE0F901F901895CB
:102E30001F920F920FB60F9211242F933F934F932F
:102E40005F936F937F938F939F93AF93BF93EF9312
:102E5000FF9384E59AE20E94CE05FF91EF91BF9126
:102E6000AF919F918F917F916F915F914F913F9122
:102E70002F910F900FBE0F901F9018951F920F92D9
:102E80000FB60F9211242F933F934F935F936F933D
:102E90007F938F939F93AF93BF93EF93FF9384E5BB
:102EA0009AE20E94DB04FF91EF91BF91AF919F9155
:102EB0008F917F916F915F914F913F912F910F90E3
:102EC0000FBE0F901F9018951F920F920FB60F9282
:102ED00011248F939F93AF93BF93EF93FF938091B0
:102EE000922990919329A0919429B0919529892BA9
:102EF0008A2B8B2BA9F1E0919029F0919129809157
:102F00008F2980838091922990919329A09194296F
:102F1000B0919529181619061A061B069CF4809183
:102F2000922990919329A0919429B0919529019784
:102F3000A109B1098093922990939329A093942990
:102F4000B093952981E08093960AFF91EF91BF910C
:102F5000AF919F918F910F900FBE0F901F9018957A
:102F60008091922990919329A0919429B0919529CB
:102F7000892B8A2B8B2B31F71092950A1092900A8D
:102F8000E1CF1F920F920FB60F9211242F933F9310
:102F90004F935F936F937F938F939F93AF93BF9361
:102FA000CF93EF93FF93C091AB08C2FF0AC010927A
:102FB0007628109275281092672884E00E94680C89
:102FC00014C0C6FF2FC080917128813051F48091C8
:102FD0007628E0917E28F0917F2890E00995109264
:102FE0007128C0FF14C00E94780CFF91EF91CF911F
:102FF000BF91AF919F918F917F916F915F914F9111
:103000003F912F910F900FBE0F901F90189580E465
:103010008093AB0881E00E94680C8091AB0885FF2B
:10302000E4CFE1CFC7FF5CC0C3FF08C01092762891
:10303000109275281092672883E0C0CF8091A9086C
:1030400080668093A9088091AB0881FF2CC0809195
:103050007528882349F08091AB0884FF05C082E081
:103060008093AA0881E0AACF909175288091672863
:103070009817A8F4E0917528809177289091782886
:10308000E80FF92FF11D80818093AD08809175289C
:103090008F5F8093752883E08093AA08A6CF82E093
:1030A0008093AA088BCF9091762880917B289817DF
:1030B00090F48091AD08E091762820917C283091A1
:1030C0007D28E20FF32FF11D8083809176288F5F9A
:1030D00080937628E0CF86E08093AA0882E06ECFC6
:1030E00085E06CCF1F920F920FB60F9211242F9391
:1030F0003F938F939F93EF93FF938091A508982F11
:103100009C70E1F08091A50894E082FF93E0909399
:103110006E288093A50881E090E0809383289093A7
:10312000842810928228FF91EF919F918F913F9177
:103130002F910F900FBE0F901F90189586FF4EC0D5
:1031400020916B2890916A288091A50884FF15C072
:1031500080916928882379F083E08093A40885E032
:1031600080936E281092822881E090E080938328DB
:1031700090938428D8CF81E0F0CF80916F28821778
:1031800090F4E0916F2880916C2890916D28E80F61
:10319000F92FF11D80818093A80880916F288F5F9F
:1031A00080936F28C0CF80917028891760F484E0E5
:1031B00090E0809383289093842880916828816090
:1031C0008093A708B0CF80916928882329F083E0F5
:1031D0008093A40881E0C4CF81E0FACF87FF40C08C
:1031E0009091702880916A289817D8F48091A80847
:1031F000E09170282091802830918128E20FF32FF0
:10320000F11D8083809170288F5F8093702890914A
:103210006A28809170288917D8F482E08093A408E6
:1032200082CF80916928882389F087E08093A40861
:1032300082E080936E281092822881E090E0809353
:1032400083289093842810926A286DCF85E0EECF72
:1032500080916928882311F087E0BACF85E0B8CF44
:1032600086E07ECF0F931F93CF93DF93CDE7DCE211
:1032700009EB1CE288819981009741F00E94782136
:103280001A821B82188219821C821D8226960C17B4
:103290001D0781F7DF91CF911F910F910895EF9254
:1032A000FF920F931F93CF93DF93E9EBF9E2128222
:1032B000138288EE93E0A0E0B0E084839583A68338
:1032C000B783C8E0DBE8C083D18320E238E02487FD
:1032D0003587168671E0778754E0508B128A138AFF
:1032E000148A158A2BE1268B178A108E1092522A87
:1032F0001092532AE4E5FAE21282138284839583C2
:10330000A683B783C083D183C0E6D8E0C487D587BE
:103310003AE13687278740E4408B128A138A148A61
:10332000158A26E2268B178A108E1092ED2A1092AB
:10333000EE2AE3E0FBE222E23BE820833183EE2445
:10334000E394F12CE28AF38A60E1C5E0DBE2FE015E
:10335000162F11921A95E9F7EFEEFAE220833183E6
:10336000128A138A21EF3AE21CE0E90119921A95B8
:10337000E9F716861786108A118A27E13BE2109238
:10338000572B1092582B20935A2B30935B2BE0E451
:10339000F0E0E0935C2BF0935D2B10925E2B10928B
:1033A0005F2B1092602B1092612B1092622B109267
:1033B000632B1092642B1092652B1092662B109247
:1033C000672B1092682B1092692B10926A2B109227
:1033D0006B2B10926C2B10926D2B10926E2B109207
:1033E0006F2B1092702B1092752B1092762B1092DF
:1033F000772B1092782B1092792B10927A2B1092B7
:103400007B2B10927C2B1092892B10928A2B10927E
:10341000592B1092972B1092982B1092992B109257
:10342000D62BE0E8F1E0E0937D2BF0937E2BEAE8E9
:10343000F1E0E0937F2BF093802BE4E9F1E0E0935F
:10344000812BF093822BEEE9F1E0E093832BF09354
:10345000842BE8EAF1E0E093852BF093862BE2EBF6
:10346000F1E0E093872BF093882BECEBF1E0E09315
:103470008B2BF0938C2BEDEBF1E0E0938D2BF09305
:103480008E2BE4E5F8E0E0938F2BF093902B2093C4
:10349000712B3093722BE4EDF4E0E093912BF093D9
:1034A000922B2093732B3093742B28EC31E02093D4
:1034B000932B3093942BE9E1FCE200E019E02DE33B
:1034C00030E0008311832283338314821582E682E5
:1034D000F782E7EDFBE228E23BE8208331831782A5
:1034E000768321E2228322E2248320E2238326E1E1
:1034F0002583E1E2FCE200E513EC20E030E000830C
:1035000011832283338314821582EDE7FCE22CE3DE
:10351000EF0119922A95E9F7E7E2FCE212821382A1
:1035200084839583A683B78386E49BE88083918315
:10353000E5E4FCE21282138280EC9BE880839183B5
:1035400087E28483618782E082871386C3E3DCE2BB
:103550005D839BE09E834F83888760913D287091B7
:103560003E2880913F289091402820E432E44FE0AB
:1035700050E00E943B20A8EEB3E00E949A206D87A5
:103580007E878F87988BE1E5FCE212861282138298
:103590001482158216821782108611868CEC9BE8A5
:1035A00080839183ECE5FCE21286128213821482FE
:1035B0001582168217821086118688ED9BE880831B
:1035C0009183E7E6FCE2128612821382148215824E
:1035D000168217821086118684EE9BE88083918381
:1035E000E2E7FCE2128612821382148215821682AE
:1035F00017821086118680EF9BE880839183DF918C
:10360000CF911F910F91FF90EF90089588ED90E07A
:1036100084BF9093610080E094E2A4EFB0E08093D7
:103620003D2890933E28A0933F28B0934028809156
:103630000206866080930206809100068160809376
:103640000006809102068F7C809302068091A00084
:103650008F788093A000809102068061809302069B
:103660001092E20581E08093E40583E08093010AF3
:103670008FEF90E08093260A9093270A80E890E0ED
:103680008093380A9093390A80933A0A90933B0AC0
:1036900080933C0A90933D0A8BE08093000A8091CE
:1036A000E50581608093E5058091E5058260809362
:1036B000E505E0E8FAE037E02FEF90E885E03183B8
:1036C0002487958780837096E03C4AE0F407B9F739
:1036D00080E094E08093B2299093B3298091B2293D
:1036E0009091B3292FEF30E0B9010E94132060932D
:1036F000B0297093B1298091B2299091B329E8EE55
:10370000F3E0BF010E9413206093A8297093A929B8
:103710008091B2299091B329BF010E941320809318
:10372000A6299093A7292093BC0A3093BD0A8091C3
:10373000B50A81608093B50A84E08093B00A8091D5
:10374000B00A81608093B00A789461E070E08CE107
:103750000E948E0261E070E08CE10E94EE0261E066
:1037600070E08DE10E948E0261E070E08DE10E94C8
:10377000EE0261E070E083E20E948E0261E070E0A0
:1037800083E20E94EE0261E070E08EE10E948E0210
:1037900061E070E08EE10E94EE0240E052EC61E0F8
:1037A00070E084E59AE20E948D0D40E052EC61E009
:1037B00070E089EB99E20E948D0D89EB99E280938C
:1037C000952B9093962B8093572B9093582B87E5AE
:1037D0009BE20E94150287E19BE20E94E00744EF12
:1037E00051E060E070E081E59CE20E94701061E0D1
:1037F00070E083E00E948E0270E060E08FE00E9443
:103800008E0270E060E08EE00E948E028AE10E94EB
:10381000551489E10E9455148BE10E94551462E011
:1038200070E08091382C0E945B0380E398EFAFEF4B
:10383000BFEF80933C2C90933D2CA0933E2CB093F3
:103840003F2C44EF51E060E070E082E79CE20E9490
:10385000D30D44EF51E060E070E087E69CE20E9407
:10386000D30D44EF51E060E070E08CE59CE20E94F3
:10387000D30D64E378E280E00E94680E6CE278E2A7
:1038800081E00E94680E64E278E282E00E94680EA5
:103890006CE178E283E00E94680E64E178E284E003
:1038A0000E94680E6CE078E285E00E94680E64E099
:1038B00078E286E00E94680E80E89DE08093962979
:1038C000909397298AE59DE0809398299093992970
:1038D0008EED94E18093A4299093A52985E49DE041
:1038E0008093A0299093A12989E39DE080939E294C
:1038F00090939F29C0E0D0E0DD24D39402E010E053
:10390000EE24E394F12C81E59CE20E94960D82E77F
:103910009CE20E94960D87E69CE20E94960D8CE543
:103920009CE20E94960D8091952B9091962BDC0144
:10393000ED91FC910084F185E02D0995892B09F426
:10394000CEC18091952B9091962BDC01ED91FC914D
:103950000284F385E02D09959C018F3F980719F3A8
:10396000982F8091622B882309F492C0973F09F029
:103970007EC01092622BA0915A2BB0915B2B6C9160
:103980006137C1F1693709F05CC0E0918F2BF0918C
:10399000902B309741F28091632B9091642B833070
:1039A000910560F430E020E050E040E070E060E03D
:1039B0008091712B9091722B0995B5CFBD016D5FF0
:1039C0007F4F03970E946F02BC016D5F7F4F80E0C5
:1039D0000E943F02E0915A2BF0915B2B9F012D5FDB
:1039E0003F4F428150E0618170E0E0918F2BF09178
:1039F000902BDECF80918B2B90918C2B892B09F40F
:103A000092CFBD016F5F7F4F8091632B9091642BAC
:103A100001970E946F02BC016F5F7F4F80E00E94A0
:103A20003F0260915A2B70915B2B6F5F7F4FE0914B
:103A30008B2BF0918C2B8091772B9091782B099583
:103A400072CFE0918D2BF0918E2B309709F46BCFD4
:103A50009D012F5F3F4F4091632B5091642B41504C
:103A600051098091792B90917A2B09955CCF6091C7
:103A7000632B7091642B822F0E943F028091632BF5
:103A80009091642B01968093632B9093642B4BCF82
:103A90006091602B7091612B6115710509F4B1C0C3
:103AA00027FDAFC0615071096093602B7093612B4B
:103AB000822F0E943F028091602B9091612B892B75
:103AC00009F031CF80915E2B882309F42CCF803D03
:103AD00009F483C040F4803949F1803C09F469C09D
:103AE00010925E2B20CF843FE1F1853F09F44DC059
:103AF000803EB1F7E0917D2BF0917E2B309781F3E2
:103B0000A0915A2BB0915B2B4C9120E8429FC001B1
:103B1000112411964C91480F592F511D60915F2B24
:103B20008091652B9091662B0995DACFE0917F2BE0
:103B3000F091802B3097A1F2A0915A2BB0915B2B82
:103B40004C9120E8429FC001112411964C91480FDE
:103B5000592F511D60915F2B8091672B9091682B9D
:103B6000E3CFE091852BF091862B309709F4B8CF05
:103B7000A0915A2BB0915B2B4C9150E011966C9117
:103B800080916D2B90916E2BCFCFE091872BF09190
:103B9000882B309709F4A4CFA0915A2BB0915B2BBE
:103BA0004C9150E011966C9180916F2B9091702BFD
:103BB000BBCFE091812BF091822B309709F490CF0D
:103BC000A0915A2BB0915B2B4C9150E060915F2BF0
:103BD0008091692B90916A2BA7CFE091832BF09174
:103BE000842B309709F47CCFA0915A2BB0915B2B9A
:103BF0004C9150E060915F2B80916B2B90916C2BDE
:103C000093CF903F30F4822F8F7080935F2B922F51
:103C1000907F903FF1F190F4903CB1F150F49039E5
:103C200009F081CE0093602B1093612B90935E2B53
:103C30007ACE903D49F1903EA9F375CE993F09F4B3
:103C400042C028F48CE0890F823060F36CCE9F3F35
:103C500009F069CE1092602B1092612B10925E2BAE
:103C600010925F2B90E080E020915C2B30915D2BD7
:103C700082179307A8F4E0915A2BF0915B2BE80F81
:103C8000F91F10820196F0CFE092602BF092612B29
:103C9000CDCFD092622B1092632B1092642B43CE27
:103CA0001092622B1092632B1092642BE091932B55
:103CB000F091942B80917B2B90917C2B309709F481
:103CC00032CE099530CEE091912BF091922B309726
:103CD00009F429CE8091732B9091742BF2CF209709
:103CE00009F411CE0E9400000ECE5058BB27AA271F
:103CF0000E948D1E0C946C1F0E945E1F38F00E9463
:103D0000651F20F039F49F3F19F426F40C945B1FD3
:103D10000EF4E095E7FB0C94551FE92F0E947D1FE0
:103D200058F3BA17620773078407950720F079F4F0
:103D3000A6F50C949F1F0EF4E0950B2EBA2FA02D24
:103D40000B01B90190010C01CA01A0011124FF2748
:103D5000591B99F0593F50F4503E68F11A16F04043
:103D6000A22F232F342F4427585FF3CF4695379542
:103D70002795A795F0405395C9F77EF41F16BA0B07
:103D8000620B730B840BBAF09150A1F0FF0FBB1FB5
:103D9000661F771F881FC2F70EC0BA0F621F731FFE
:103DA000841F48F4879577956795B795F7959E3F5B
:103DB00008F0B0CF9395880F08F09927EE0F9795EC
:103DC000879508950E94E91E6894B1110C94A01F74
:103DD00008950E94851F88F09F5798F0B92F992762
:103DE000B751B0F0E1F0660F771F881F991F1AF0E6
:103DF000BA95C9F714C0B13091F00E949F1FB1E08D
:103E000008950C949F1F672F782F8827B85F39F08B
:103E1000B93FCCF3869577956795B395D9F73EF47E
:103E200090958095709561957F4F8F4F9F4F089526
:103E3000E89409C097FB3EF4909580957095619544
:103E40007F4F8F4F9F4F9923A9F0F92F96E9BB27FA
:103E50009395F695879577956795B795F111F8CF76
:103E6000FAF4BB0F11F460FF1BC06F5F7F4F8F4FE1
:103E70009F4F16C0882311F096E911C0772321F0D7
:103E80009EE8872F762F05C0662371F096E8862F6F
:103E900070E060E02AF09A95660F771F881FDAF7C6
:103EA000880F9695879597F9089597F99F6780E809
:103EB00070E060E008959FEF80EC089500240A947C
:103EC0001616170618060906089500240A941216F5
:103ED0001306140605060895092E0394000C11F428
:103EE000882352F0BB0F40F4BF2B11F460FF04C0D5
:103EF0006F5F7F4F8F4F9F4F089557FD9058440F2E
:103F0000551F59F05F3F71F04795880F97FB991F38
:103F100061F09F3F79F087950895121613061406F5
:103F2000551FF2CF4695F1DF08C016161706180682
:103F3000991FF1CF86957105610508940895E8945D
:103F4000BB2766277727CB0197F908950E94B91FF1
:103F50000C946C1F0E945E1F38F00E94651F20F0B9
:103F6000952311F00C94551F0C945B1F11240C9495
:103F7000A01F0E947D1F70F3959FC1F3950F50E025
:103F8000551F629FF001729FBB27F00DB11D639F0B
:103F9000AA27F00DB11DAA1F649F6627B00DA11DB1
:103FA000661F829F2227B00DA11D621F739FB00D57
:103FB000A11D621F839FA00D611D221F749F3327C7
:103FC000A00D611D231F849F600D211D822F762F60
:103FD0006A2F11249F5750409AF0F1F088234AF03D
:103FE000EE0FFF1FBB1F661F771F881F91505040A9
:103FF000A9F79E3F510580F00C94551F0C94A01F0B
:104000005F3FE4F3983ED4F3869577956795B7952F
:10401000F795E7959F5FC1F7FE2B880F911D969549
:10402000879597F90895AA1BBB1B51E107C0AA1FEA
:10403000BB1FA617B70710F0A61BB70B881F991F49
:104040005A95A9F780959095BC01CD01089597FBED
:10405000072E16F4009407D077FD09D00E94132094
:1040600007FC05D03EF4909581959F4F089570957B
:1040700061957F4F0895A1E21A2EAA1BBB1BFD017B
:104080000DC0AA1FBB1FEE1FFF1FA217B307E40737
:10409000F50720F0A21BB30BE40BF50B661F771F8F
:1040A000881F991F1A9469F760957095809590956F
:1040B0009B01AC01BD01CF010895052E97FB1EF4B5
:1040C00000940E94742057FD07D00E943B2007FCFB
:1040D00003D04EF40C947420509540953095219562
:1040E0003F4F4F4F5F4F0895909580957095619524
:1040F0007F4F8F4F9F4F08950E948420332312F4E7
:104100008A1B9B0B0C949520A29FB001B39FC0010A
:10411000A39F700D811D1124911DB29F700D811DF3
:104120001124911D08950E948420B7FF0895821BD9
:10413000930B08950E948420A59F900DB49F900D2D
:10414000A49F800D911D11240895B7FF0C949A200F
:104150000E949A20821B930B089597FD1094002EC5
:10416000083098F00850232F342F452F562F672FF3
:10417000782F892F912DF4CF159497958795779562
:10418000679557954795379527950A95AAF711246E
:10419000002D08950024A7FD00942A17300540053E
:1041A000500560057005800590050895EE0FFF1F0E
:1041B0000590F491E02D09940F931F93CF93DF9313
:1041C0008230910510F482E090E0E091BB2CF091F8
:1041D000BC2C30E020E0B0E0A0E0309799F421154D
:1041E000310509F44AC0281B390B24303105D8F5B4
:1041F0008A819B816115710589F1FB01828393831B
:10420000FE0111C040815181028113814817590775
:10421000E0F04817590799F4109761F012960C9343
:10422000129713961C933296CF01DF91CF911F9175
:104230000F9108950093BB2C1093BC2CF4CF211543
:10424000310551F04217530738F0A901DB019A01FB
:10425000BD01DF01F801C1CFEF01F9CF8093BB2C85
:104260009093BC2CCDCFFE01E20FF31F819391936D
:104270002250310928833983D7CF2091B92C30912E
:10428000BA2C232B41F420914328309144282093C9
:10429000B92C3093BA2C2091412830914228211515
:1042A000310541F42DB73EB740914528509146283D
:1042B000241B350BE091B92CF091BA2CE217F307CF
:1042C000A0F42E1B3F0B2817390778F0AC014E5F86
:1042D0005F4F2417350748F04E0F5F1F4093B92CEE
:1042E0005093BA2C819391939FCFF0E0E0E09CCF64
:1042F000CF93DF930097E9F0FC013297128213828B
:10430000A091BB2CB091BC2CED0130E020E01097C7
:10431000A1F420813181820F931F2091B92C30911B
:10432000BA2C2817390709F061C0E093B92CF09333
:10433000BA2CDF91CF910895EA01CE17DF07E8F597
:104340004A815B819E0141155105B1F7E901EA837C
:10435000FB8349915991C40FD51FEC17FD0761F4F8
:10436000808191810296840F951FE901888399834A
:10437000828193818A839B83F0E0E0E012968D91A5
:104380009C9113970097B9F52D913C911197CD0110
:104390000296820F931F2091B92C3091BA2C2817C6
:1043A000390739F6309751F51092BB2C1092BC2C7E
:1043B000A093B92CB093BA2CBCCFC283D3834081D5
:1043C0005181840F951FC817D90761F44E5F5F4F65
:1043D00088819981480F591F408351838A819B812D
:1043E000828393832115310509F0B0CFE093BB2C74
:1043F000F093BC2C9ECFFD01DC01C0CF1282138252
:10440000D7CF81E090E0F8940C94D824AEE0B0E0EF
:10441000ECE0F2E20C94B5240D891E8986E08C83D1
:1044200009831A838FEF9FE78D839E83AE01475EDA
:104430005F4F6F89788DCE0101960E9429222F81CE
:104440003885020F131FF80110822E96E4E00C94B9
:10445000CE24ABE0B0E0EFE2F2E20C94A7247C01C2
:104460003B018A01FC0116821782838181FFC8C14A
:10447000CE0101965C01F7019381F30193FD8591D3
:1044800093FF81913F01882309F453C1853239F4A8
:1044900093FD859193FF81913F01853229F4B70106
:1044A00090E00E941924E7CF912C212C312CFFE1C0
:1044B000F31538F08B3211F190F4803209F1833228
:1044C00029F137FC3CC020ED280F2A3050F536FE8C
:1044D00020C08AE0989E200D1124922E06C08D32B5
:1044E00091F0803371F7689430F8F30193FD859172
:1044F00093FF81913F018111DACF21C0689431F897
:10450000689432F8F2CF689433F8EFCF689434F8B7
:10451000ECCFEAE02E9E200D1124222E689435F86F
:10452000E4CF8E3229F436FC04C1689436F8DDCF2E
:104530008C3619F4689437F8D8CF8836B1F2982FB2
:104540009F7D95549330E0F08336A1F18337C1F11C
:10455000833509F063C02801F2E04F0E511CF801C9
:10456000C080D180692D70E036FC02C06FEF7FEF14
:10457000C6010E9403244C01689437F882010AC0E6
:104580000C5F1F4FFFE3F98388248394912C65010E
:10459000E89437F833FE2DC0522C8114910471F544
:1045A000552009F468CFB70180E290E00E941924F9
:1045B0005A94F6CFF801808189830E5F1F4FE4CFB4
:1045C0002801F2E04F0E511CF801C080D180692D06
:1045D00070E036FC02C06FEF7FEFC6010E940E2430
:1045E0004C018201D5CFB70180E290E00E941924EE
:1045F0002A942814190409F0B0F7CECFF60137FC3D
:10460000859137FE81916F01B70190E00E941924D6
:1046100051105A94F1E08F1A9108BFCF843619F0E7
:10462000893609F077C0F80137FE6BC0608171816F
:10463000828193810C5F1F4FF32DFF763F2E97FFF2
:1046400009C090958095709561957F4F8F4F9F4FD2
:10465000689437F82AE030E0A5010E944924C82E6A
:10466000CA188C2C432C36FE0CC0E89440F8C914B0
:1046700040F434FE05C032FC03C0F32DFE7E4F2E05
:10468000892C44FE95C0FE01EC0DF11D8081803324
:1046900009F087C0242D297E422E842D8870582E43
:1046A00043FC95C040FE8FC09C2C821418F42C0C47
:1046B000922C981844FE91C0B70180E390E00E94CC
:1046C000192442FE09C088E790E041FE02C088E557
:1046D00090E0B7010E941924C91408F48AC0CA9452
:1046E000D12C9FEFC91AD90ACA0CDB1CF6018291A2
:1046F0006F01B70190E00E941924AC14BD04B1F71A
:104700004FCF60817181072E000C880B990B0E5FD3
:104710001F4F92CFD32CE894D4F82AE030E08537AD
:1047200039F1232D297FD22E8F3601F148F48835B7
:10473000A9F0F701868197812B96E2E10C94C024C1
:10474000803749F08837A9F7D4FE02C06894D2F8C0
:1047500020E130E00DC06894D4F8F6CF34FE03C0F9
:10476000822F8660D82E20E132E002C028E030E0BF
:10477000F801D7FE0FC060817181828193810C5F47
:104780001F4FA5010E944924C82ECA183D2CE89449
:1047900037F867CF6081718190E080E00E5F1F4F36
:1047A000F0CF42FC02C0839478CF8394839475CF7A
:1047B000842D867809F471CFF6CFB70180E290E0BE
:1047C0000E94192483948214C0F3512C73CF522C6D
:1047D0005818821408F46ECFF8CF842D867809F427
:1047E0007BCF8BE241FE80E247FC8DE2B70190E097
:1047F00071CFB70180E390E00E9419249A946CCFA6
:104800008FEF9FEF99CFFC01059061507040011030
:10481000D8F7809590958E0F9F1F0895FC016150E9
:10482000704001900110D8F7809590958E0F9F1FD2
:1048300008950F931F93CF93DF93182F092FEB0148
:104840008B8181FD09C01FEF0FEF812F902FDF912A
:10485000CF911F910F91089582FF14C02E813F8147
:104860008C819D81281739073CF4E881F981CF01BB
:1048700001968883998310838E819F8101968E8310
:104880009F83E3CFE885F985812F0995892BA1F3D3
:10489000DACFFA01AA27283051F1203181F1E894CA
:1048A0006F936E7F6E5F7F4F8F4F9F4FAF4FB1E023
:1048B0003ED0B4E03CD0670F781F891F9A1FA11D1E
:1048C000680F791F8A1F911DA11D6A0F711D811D1F
:1048D000911DA11D20D009F468943F912AE0269FE4
:1048E00011243019305D3193DEF6CF010895462F43
:1048F0004770405D4193B3E00FD0C9F7F6CF462F24
:104900004F70405D4A3318F0495D31FD405241938C
:1049100002D0A9F7EACFB4E0A69597958795779549
:104920006795BA95C9F700976105710508959B01D0
:10493000AC010A2E06945795479537952795BA9559
:10494000C9F7620F731F841F951FA01D08952F9232
:104950003F924F925F926F927F928F929F92AF920F
:10496000BF92CF92DF92EF92FF920F931F93CF935C
:10497000DF93CDB7DEB7CA1BDB0BCDBFDEBF09941B
:104980002A88398848885F846E847D848C849B84DF
:10499000AA84B984C884DF80EE80FD800C811B81ED
:1049A000AA81B981CE0FD11DCDBFDEBFED01089523
:1049B00011E0C1E5D1E004C0FE010E94D62021969D
:0A49C000C235D107C9F7F894FFCF04
:1049CA00000040001400540006010B02DC00B8018C
:1049DA00E900D2010000000006010B02DC00B80168
:1049EA00E900D20100000000AF005D01930026013A
:1049FA009C00370100000000AF005D019300260112
:104A0A009C0037010000000037011501260115013D
:104A1A0037013701D000C4001501060172015D019A
:104A2A00A500D201B8019F013701F700E900DC00B7
:104A3A00D0000000000000000C000C000C000C006C
:104A4A000C000C00060003000C000C000C000C000B
:104A5A000C000C00060003000C000C000C000C00FB
:104A6A000C000C00060003000C000C000C000C00EB
:104A7A000C000C00060006001200120012000600CC
:104A8A0006000600060006000600120012001200C8
:104A9A001200120012000A000A000A000A000A00A4
:104AAA000A000300030003000000000300010200E3
:104ABA0000010100000000000000000000000000EA
:104ACA0000000000000000000000000000000000DC
:104ADA0000050400050602040103000100010200AA
:104AEA00010203040502030305040605040607037D
:104AFA000700010202030001070600000000130676
:104B0A008F060005640631050F0523058D0D560530
:104B1A003D058606000000004A0F00000000590803
:104B2A00E70DA9087A085A08AD095C093413B308D5
:104B3A00FD09F7098B12EF0900000000220BFD0A9C
:104B4A00BF0BD30AF60AE30AD40A0C0D7A0B6D0BD3
:104B5A00080D450B1F0C3D0B3E0C650BAC0AA70A52
:104B6A000202000502010500040101040404030312
:104B7A000303030300000200000301010000010215
:104B8A000202020505050503052010012040041054
:104B9A0002080102010204010204081020040808A4
:104BAA0020104020104080088001020404080102FD
:104BBA00804000000000620E8F06BF0B030A00004F
:104BCA00000070107F01E50D030A00000000D30DFC
:104BDA007E01E90D160F00000000D30D7D01EB0DDB
:104BEA00C81500000000E30D7C01ED0DEC140D0A60
:104BFA0000534D4152540047415244454E00576FAD
:104C0A0020576F6F6E6720436F6F70657200253093
:104C1A0032640025004D4F4953543A00253033641D
:034C2A0000200067
:104C2D00FF00050A00131A040B19000000111100F2
:104C3D000011110E04040E0E1F1F1F0E040E0E0E7A
:104C4D000E04000404040A0A111B1F0E10060908A5
:104C5D0008090600040A0A0E0E1F1F0E070024F491
:084C6D00000000BD2C800000D6
:0400000300000200F7
:00000001FF
